{
  "contractName": "BettingPool",
  "abi": [
    {
      "inputs": [],
      "stateMutability": "nonpayable",
      "type": "constructor"
    },
    {
      "inputs": [],
      "name": "name",
      "outputs": [
        {
          "internalType": "string",
          "name": "",
          "type": "string"
        }
      ],
      "stateMutability": "view",
      "type": "function",
      "constant": true
    },
    {
      "inputs": [],
      "name": "owner",
      "outputs": [
        {
          "internalType": "address",
          "name": "",
          "type": "address"
        }
      ],
      "stateMutability": "view",
      "type": "function",
      "constant": true
    },
    {
      "inputs": [
        {
          "internalType": "address",
          "name": "",
          "type": "address"
        }
      ],
      "name": "stakingBalance",
      "outputs": [
        {
          "internalType": "uint256",
          "name": "",
          "type": "uint256"
        }
      ],
      "stateMutability": "view",
      "type": "function",
      "constant": true
    },
    {
      "inputs": [
        {
          "internalType": "uint256",
          "name": "_amount",
          "type": "uint256"
        }
      ],
      "name": "set",
      "outputs": [],
      "stateMutability": "nonpayable",
      "type": "function"
    },
    {
      "inputs": [],
      "name": "get",
      "outputs": [
        {
          "internalType": "uint256",
          "name": "",
          "type": "uint256"
        }
      ],
      "stateMutability": "view",
      "type": "function",
      "constant": true
    },
    {
      "inputs": [],
      "name": "getBalance",
      "outputs": [
        {
          "internalType": "uint256",
          "name": "",
          "type": "uint256"
        }
      ],
      "stateMutability": "view",
      "type": "function",
      "constant": true
    }
  ],
  "bytecode": "0x60806040526040518060400160405280600d81526020017f4d696c6b2054656120506f6f6c000000000000000000000000000000000000008152506001908051906020019061004f9291906100a3565b5034801561005c57600080fd5b5033600260006101000a81548173ffffffffffffffffffffffffffffffffffffffff021916908373ffffffffffffffffffffffffffffffffffffffff1602179055506101a7565b8280546100af90610175565b90600052602060002090601f0160209004810192826100d15760008555610118565b82601f106100ea57805160ff1916838001178555610118565b82800160010185558215610118579182015b828111156101175782518255916020019190600101906100fc565b5b5090506101259190610129565b5090565b5b8082111561014257600081600090555060010161012a565b5090565b7f4e487b7100000000000000000000000000000000000000000000000000000000600052602260045260246000fd5b6000600282049050600182168061018d57607f821691505b602082108114156101a1576101a0610146565b5b50919050565b61054d806101b66000396000f3fe608060405234801561001057600080fd5b50600436106100625760003560e01c806306fdde031461006757806312065fe01461008557806345bc78ab146100a357806360fe47b1146100d35780636d4ce63c146100ef5780638da5cb5b1461010d575b600080fd5b61006f61012b565b60405161007c919061034d565b60405180910390f35b61008d6101b9565b60405161009a9190610388565b60405180910390f35b6100bd60048036038101906100b89190610406565b6101d8565b6040516100ca9190610388565b60405180910390f35b6100ed60048036038101906100e8919061045f565b6101f0565b005b6100f7610285565b6040516101049190610388565b60405180910390f35b61011561028e565b604051610122919061049b565b60405180910390f35b60018054610138906104e5565b80601f0160208091040260200160405190810160405280929190818152602001828054610164906104e5565b80156101b15780601f10610186576101008083540402835291602001916101b1565b820191906000526020600020905b81548152906001019060200180831161019457829003601f168201915b505050505081565b60003073ffffffffffffffffffffffffffffffffffffffff1631905090565b60036020528060005260406000206000915090505481565b80600360003373ffffffffffffffffffffffffffffffffffffffff1673ffffffffffffffffffffffffffffffffffffffff168152602001908152602001600020819055503073ffffffffffffffffffffffffffffffffffffffff166108fc829081150290604051600060405180830381858888f1935050505015801561027a573d6000803e3d6000fd5b508060008190555050565b60008054905090565b600260009054906101000a900473ffffffffffffffffffffffffffffffffffffffff1681565b600081519050919050565b600082825260208201905092915050565b60005b838110156102ee5780820151818401526020810190506102d3565b838111156102fd576000848401525b50505050565b6000601f19601f8301169050919050565b600061031f826102b4565b61032981856102bf565b93506103398185602086016102d0565b61034281610303565b840191505092915050565b600060208201905081810360008301526103678184610314565b905092915050565b6000819050919050565b6103828161036f565b82525050565b600060208201905061039d6000830184610379565b92915050565b600080fd5b600073ffffffffffffffffffffffffffffffffffffffff82169050919050565b60006103d3826103a8565b9050919050565b6103e3816103c8565b81146103ee57600080fd5b50565b600081359050610400816103da565b92915050565b60006020828403121561041c5761041b6103a3565b5b600061042a848285016103f1565b91505092915050565b61043c8161036f565b811461044757600080fd5b50565b60008135905061045981610433565b92915050565b600060208284031215610475576104746103a3565b5b60006104838482850161044a565b91505092915050565b610495816103c8565b82525050565b60006020820190506104b0600083018461048c565b92915050565b7f4e487b7100000000000000000000000000000000000000000000000000000000600052602260045260246000fd5b600060028204905060018216806104fd57607f821691505b60208210811415610511576105106104b6565b5b5091905056fea2646970667358221220d77d4efe3d39e2ba51b5edb436ccc13dee6893a8065feec8777ba6a9908610a564736f6c634300080a0033",
  "immutableReferences": {},
  "source": "// SPDX-License-Identifier: MIT\npragma solidity ^0.8.0;\n\ncontract BettingPool {\n  uint storedData;\n  string public name = \"Milk Tea Pool\";\n  address public owner;\n  mapping(address => uint) public stakingBalance;\n  address payable sc;\n\n  constructor() public {\n    owner = msg.sender;\n  }\n\n  // function stakeTokens(uint _amount) public {\n  //   // Require amount greater than 0\n  //   require(_amount > 0, \"amount cannot be 0\");\n  //   // Update staking balance\n  //   stakingBalance[msg.sender] = stakingBalance[msg.sender] + _amount;\n  // }\n\n  // // Unstaking Tokens (Withdraw)\n  // function unstakeTokens() public {\n  //   // Fetch staking balance\n  //   uint balance = stakingBalance[msg.sender];\n  //   require(balance > 0, \"staking balance cannot be 0\");\n\n  //   // Reset staking balance\n  //   stakingBalance[msg.sender] = 0;\n  // }\n\n  function set(uint _amount) public {\n    stakingBalance[msg.sender] = _amount;\n    // token.transfer(address(this), _amount);\n    payable(address(this)).transfer(_amount);\n    storedData = _amount;\n  }\n\n  function get() public view returns (uint) {\n    return storedData;\n  }\n\n  function getBalance() public view returns(uint) {\n    return address(this).balance;    \n  } \n}\n",
  "sourcePath": "/home/lionel/dev/best_bets/frontend/src/contracts/BettingPool.sol",
  "compiler": {
    "name": "solc",
    "version": "0.8.10+commit.fc410830.Emscripten.clang"
  },
  "schemaVersion": "3.4.3",
  "updatedAt": "2021-11-25T10:54:52.568Z",
  "networkType": "ethereum",
  "devdoc": {
    "kind": "dev",
    "methods": {},
    "version": 1
  },
  "userdoc": {
    "kind": "user",
    "methods": {},
    "version": 1
  }
}