{
  "contractName": "SimpleStorage",
  "abi": [
    {
      "inputs": [],
      "stateMutability": "nonpayable",
      "type": "constructor"
    },
    {
      "inputs": [
        {
          "internalType": "address",
          "name": "",
          "type": "address"
        }
      ],
      "name": "stakingBalance",
      "outputs": [
        {
          "internalType": "uint256",
          "name": "",
          "type": "uint256"
        }
      ],
      "stateMutability": "view",
      "type": "function"
    },
    {
      "inputs": [
        {
          "internalType": "uint256",
          "name": "x",
          "type": "uint256"
        }
      ],
      "name": "set",
      "outputs": [],
      "stateMutability": "nonpayable",
      "type": "function"
    },
    {
      "inputs": [],
      "name": "get",
      "outputs": [
        {
          "internalType": "uint256",
          "name": "",
          "type": "uint256"
        }
      ],
      "stateMutability": "view",
      "type": "function"
    },
    {
      "inputs": [],
      "name": "getOwner",
      "outputs": [
        {
          "internalType": "address",
          "name": "",
          "type": "address"
        }
      ],
      "stateMutability": "view",
      "type": "function"
    },
    {
      "inputs": [],
      "name": "getOwnerBalance",
      "outputs": [
        {
          "internalType": "uint256",
          "name": "",
          "type": "uint256"
        }
      ],
      "stateMutability": "view",
      "type": "function"
    },
    {
      "inputs": [],
      "name": "getPoolBalance",
      "outputs": [
        {
          "internalType": "uint256",
          "name": "",
          "type": "uint256"
        }
      ],
      "stateMutability": "view",
      "type": "function"
    },
    {
      "inputs": [],
      "name": "transfer",
      "outputs": [],
      "stateMutability": "nonpayable",
      "type": "function"
    }
  ],
  "bytecode": "0x608060405234801561001057600080fd5b5033600160006101000a81548173ffffffffffffffffffffffffffffffffffffffff021916908373ffffffffffffffffffffffffffffffffffffffff1602179055506104f1806100616000396000f3fe608060405234801561001057600080fd5b506004361061007d5760003560e01c80636d4ce63c1161005b5780636d4ce63c146100ec578063893d20e81461010a5780638a4068dd14610128578063abd70aa2146101325761007d565b806345bc78ab14610082578063590791f2146100b257806360fe47b1146100d0575b600080fd5b61009c60048036038101906100979190610304565b610150565b6040516100a9919061034a565b60405180910390f35b6100ba610168565b6040516100c7919061034a565b60405180910390f35b6100ea60048036038101906100e59190610391565b6101a9565b005b6100f46101b3565b604051610101919061034a565b60405180910390f35b6101126101bc565b60405161011f91906103cd565b60405180910390f35b6101306101e6565b005b61013a610282565b604051610147919061034a565b60405180910390f35b60026020528060005260406000206000915090505481565b6000600160009054906101000a900473ffffffffffffffffffffffffffffffffffffffff1673ffffffffffffffffffffffffffffffffffffffff1631905090565b8060008190555050565b60008054905090565b6000600160009054906101000a900473ffffffffffffffffffffffffffffffffffffffff16905090565b600073c28ebfdc50df35f81bececae8d8ec1d0e4478cb690508073ffffffffffffffffffffffffffffffffffffffff1663a9059cbb3360166040518363ffffffff1660e01b815260040161023b92919061042d565b6020604051808303816000875af115801561025a573d6000803e3d6000fd5b505050506040513d601f19601f8201168201806040525081019061027e919061048e565b5050565b60003073ffffffffffffffffffffffffffffffffffffffff1631905090565b600080fd5b600073ffffffffffffffffffffffffffffffffffffffff82169050919050565b60006102d1826102a6565b9050919050565b6102e1816102c6565b81146102ec57600080fd5b50565b6000813590506102fe816102d8565b92915050565b60006020828403121561031a576103196102a1565b5b6000610328848285016102ef565b91505092915050565b6000819050919050565b61034481610331565b82525050565b600060208201905061035f600083018461033b565b92915050565b61036e81610331565b811461037957600080fd5b50565b60008135905061038b81610365565b92915050565b6000602082840312156103a7576103a66102a1565b5b60006103b58482850161037c565b91505092915050565b6103c7816102c6565b82525050565b60006020820190506103e260008301846103be565b92915050565b6000819050919050565b6000819050919050565b600061041761041261040d846103e8565b6103f2565b610331565b9050919050565b610427816103fc565b82525050565b600060408201905061044260008301856103be565b61044f602083018461041e565b9392505050565b60008115159050919050565b61046b81610456565b811461047657600080fd5b50565b60008151905061048881610462565b92915050565b6000602082840312156104a4576104a36102a1565b5b60006104b284828501610479565b9150509291505056fea2646970667358221220255d3402313484db625c6b733933e32d9192a35e8b171c4627be194d3aba2a3264736f6c634300080a0033",
  "immutableReferences": {},
  "source": "// SPDX-License-Identifier: MIT\npragma solidity ^0.8.0;\n\nimport './Token.sol';\n\ncontract SimpleStorage {\n  uint storedData;\n  address private owner;\n  mapping(address => uint) public stakingBalance;\n\n  constructor() public {\n    owner = msg.sender;\n  }\n\n  function set(uint x) public {\n    storedData = x;\n  }\n\n  function get() public view returns (uint) {\n    return storedData;\n  }\n  function getOwner() public view returns (address) {    \n    return owner;\n  }\n  function getOwnerBalance() public view returns(uint){\n    return owner.balance;\n  }\n  \n  function getPoolBalance() public view returns(uint){\n    return address(this).balance;\n  }\n\n  function transfer() external {\n    Token token = Token(0xc28eBfdc50DF35f81becECaE8d8ec1D0E4478Cb6);\n    token.transfer(msg.sender, 22);\n  }\n}\n",
  "sourcePath": "/home/lionel/dev/best_bets/frontend/src/contracts/SimpleStorage.sol",
  "compiler": {
    "name": "solc",
    "version": "0.8.10+commit.fc410830.Emscripten.clang"
  },
  "schemaVersion": "3.4.3",
  "updatedAt": "2021-11-25T11:09:09.493Z",
  "devdoc": {
    "kind": "dev",
    "methods": {},
    "version": 1
  },
  "userdoc": {
    "kind": "user",
    "methods": {},
    "version": 1
  }
}